{
  "_format": "hh-sol-artifact-1",
  "contractName": "InvestmentVehicle",
  "sourceName": "contracts/sunblockInvestmentVehicle_v1.sol",
  "abi": [
    {
      "inputs": [],
      "stateMutability": "nonpayable",
      "type": "constructor"
    },
    {
      "anonymous": false,
      "inputs": [
        {
          "indexed": false,
          "internalType": "address",
          "name": "previousAdmin",
          "type": "address"
        },
        {
          "indexed": false,
          "internalType": "address",
          "name": "newAdmin",
          "type": "address"
        }
      ],
      "name": "AdminChanged",
      "type": "event"
    },
    {
      "anonymous": false,
      "inputs": [
        {
          "indexed": true,
          "internalType": "address",
          "name": "beacon",
          "type": "address"
        }
      ],
      "name": "BeaconUpgraded",
      "type": "event"
    },
    {
      "anonymous": false,
      "inputs": [
        {
          "indexed": false,
          "internalType": "address",
          "name": "to",
          "type": "address"
        },
        {
          "indexed": false,
          "internalType": "address",
          "name": "by",
          "type": "address"
        },
        {
          "indexed": false,
          "internalType": "uint256",
          "name": "amount",
          "type": "uint256"
        }
      ],
      "name": "FeeWithdrawn",
      "type": "event"
    },
    {
      "anonymous": false,
      "inputs": [
        {
          "indexed": false,
          "internalType": "address",
          "name": "from",
          "type": "address"
        },
        {
          "indexed": false,
          "internalType": "address",
          "name": "by",
          "type": "address"
        },
        {
          "indexed": false,
          "internalType": "uint256",
          "name": "amount",
          "type": "uint256"
        }
      ],
      "name": "InvestmentDeposited",
      "type": "event"
    },
    {
      "anonymous": false,
      "inputs": [
        {
          "indexed": false,
          "internalType": "address",
          "name": "to",
          "type": "address"
        },
        {
          "indexed": false,
          "internalType": "address",
          "name": "by",
          "type": "address"
        },
        {
          "indexed": false,
          "internalType": "uint256",
          "name": "amount",
          "type": "uint256"
        }
      ],
      "name": "InvestmentWithdrawn",
      "type": "event"
    },
    {
      "anonymous": false,
      "inputs": [
        {
          "indexed": false,
          "internalType": "address",
          "name": "account",
          "type": "address"
        }
      ],
      "name": "Paused",
      "type": "event"
    },
    {
      "anonymous": false,
      "inputs": [
        {
          "indexed": false,
          "internalType": "address",
          "name": "from",
          "type": "address"
        },
        {
          "indexed": false,
          "internalType": "address",
          "name": "by",
          "type": "address"
        },
        {
          "indexed": false,
          "internalType": "uint256",
          "name": "amount",
          "type": "uint256"
        }
      ],
      "name": "RewardDeposited",
      "type": "event"
    },
    {
      "anonymous": false,
      "inputs": [
        {
          "indexed": false,
          "internalType": "address",
          "name": "to",
          "type": "address"
        },
        {
          "indexed": false,
          "internalType": "address",
          "name": "by",
          "type": "address"
        },
        {
          "indexed": false,
          "internalType": "uint256",
          "name": "amount",
          "type": "uint256"
        }
      ],
      "name": "RewardWithdrawn",
      "type": "event"
    },
    {
      "anonymous": false,
      "inputs": [
        {
          "indexed": true,
          "internalType": "bytes32",
          "name": "role",
          "type": "bytes32"
        },
        {
          "indexed": true,
          "internalType": "bytes32",
          "name": "previousAdminRole",
          "type": "bytes32"
        },
        {
          "indexed": true,
          "internalType": "bytes32",
          "name": "newAdminRole",
          "type": "bytes32"
        }
      ],
      "name": "RoleAdminChanged",
      "type": "event"
    },
    {
      "anonymous": false,
      "inputs": [
        {
          "indexed": true,
          "internalType": "bytes32",
          "name": "role",
          "type": "bytes32"
        },
        {
          "indexed": true,
          "internalType": "address",
          "name": "account",
          "type": "address"
        },
        {
          "indexed": true,
          "internalType": "address",
          "name": "sender",
          "type": "address"
        }
      ],
      "name": "RoleGranted",
      "type": "event"
    },
    {
      "anonymous": false,
      "inputs": [
        {
          "indexed": true,
          "internalType": "bytes32",
          "name": "role",
          "type": "bytes32"
        },
        {
          "indexed": true,
          "internalType": "address",
          "name": "account",
          "type": "address"
        },
        {
          "indexed": true,
          "internalType": "address",
          "name": "sender",
          "type": "address"
        }
      ],
      "name": "RoleRevoked",
      "type": "event"
    },
    {
      "anonymous": false,
      "inputs": [
        {
          "indexed": false,
          "internalType": "address",
          "name": "account",
          "type": "address"
        }
      ],
      "name": "Unpaused",
      "type": "event"
    },
    {
      "anonymous": false,
      "inputs": [
        {
          "indexed": true,
          "internalType": "address",
          "name": "implementation",
          "type": "address"
        }
      ],
      "name": "Upgraded",
      "type": "event"
    },
    {
      "inputs": [],
      "name": "DEFAULT_ADMIN_ROLE",
      "outputs": [
        {
          "internalType": "bytes32",
          "name": "",
          "type": "bytes32"
        }
      ],
      "stateMutability": "view",
      "type": "function"
    },
    {
      "inputs": [],
      "name": "MANAGER_ROLE",
      "outputs": [
        {
          "internalType": "bytes32",
          "name": "",
          "type": "bytes32"
        }
      ],
      "stateMutability": "view",
      "type": "function"
    },
    {
      "inputs": [],
      "name": "PAUSER_ROLE",
      "outputs": [
        {
          "internalType": "bytes32",
          "name": "",
          "type": "bytes32"
        }
      ],
      "stateMutability": "view",
      "type": "function"
    },
    {
      "inputs": [],
      "name": "UPGRADER_ROLE",
      "outputs": [
        {
          "internalType": "bytes32",
          "name": "",
          "type": "bytes32"
        }
      ],
      "stateMutability": "view",
      "type": "function"
    },
    {
      "inputs": [
        {
          "internalType": "address",
          "name": "invPool",
          "type": "address"
        },
        {
          "internalType": "uint256",
          "name": "amount",
          "type": "uint256"
        }
      ],
      "name": "depositInvestment",
      "outputs": [
        {
          "internalType": "bool",
          "name": "",
          "type": "bool"
        }
      ],
      "stateMutability": "nonpayable",
      "type": "function"
    },
    {
      "inputs": [
        {
          "internalType": "address",
          "name": "_rewardPool",
          "type": "address"
        },
        {
          "internalType": "uint256",
          "name": "_amount",
          "type": "uint256"
        }
      ],
      "name": "depositReward",
      "outputs": [
        {
          "internalType": "bool",
          "name": "",
          "type": "bool"
        }
      ],
      "stateMutability": "nonpayable",
      "type": "function"
    },
    {
      "inputs": [],
      "name": "feePool",
      "outputs": [
        {
          "internalType": "uint256",
          "name": "",
          "type": "uint256"
        }
      ],
      "stateMutability": "view",
      "type": "function"
    },
    {
      "inputs": [
        {
          "internalType": "bytes32",
          "name": "role",
          "type": "bytes32"
        }
      ],
      "name": "getRoleAdmin",
      "outputs": [
        {
          "internalType": "bytes32",
          "name": "",
          "type": "bytes32"
        }
      ],
      "stateMutability": "view",
      "type": "function"
    },
    {
      "inputs": [
        {
          "internalType": "bytes32",
          "name": "role",
          "type": "bytes32"
        },
        {
          "internalType": "address",
          "name": "account",
          "type": "address"
        }
      ],
      "name": "grantRole",
      "outputs": [],
      "stateMutability": "nonpayable",
      "type": "function"
    },
    {
      "inputs": [
        {
          "internalType": "bytes32",
          "name": "role",
          "type": "bytes32"
        },
        {
          "internalType": "address",
          "name": "account",
          "type": "address"
        }
      ],
      "name": "hasRole",
      "outputs": [
        {
          "internalType": "bool",
          "name": "",
          "type": "bool"
        }
      ],
      "stateMutability": "view",
      "type": "function"
    },
    {
      "inputs": [
        {
          "internalType": "address",
          "name": "instrument",
          "type": "address"
        },
        {
          "internalType": "uint256",
          "name": "fee",
          "type": "uint256"
        }
      ],
      "name": "initialize",
      "outputs": [],
      "stateMutability": "nonpayable",
      "type": "function"
    },
    {
      "inputs": [],
      "name": "investmentPool",
      "outputs": [
        {
          "internalType": "uint256",
          "name": "",
          "type": "uint256"
        }
      ],
      "stateMutability": "view",
      "type": "function"
    },
    {
      "inputs": [],
      "name": "managementFee",
      "outputs": [
        {
          "internalType": "uint256",
          "name": "",
          "type": "uint256"
        }
      ],
      "stateMutability": "view",
      "type": "function"
    },
    {
      "inputs": [],
      "name": "pause",
      "outputs": [],
      "stateMutability": "nonpayable",
      "type": "function"
    },
    {
      "inputs": [],
      "name": "paused",
      "outputs": [
        {
          "internalType": "bool",
          "name": "",
          "type": "bool"
        }
      ],
      "stateMutability": "view",
      "type": "function"
    },
    {
      "inputs": [],
      "name": "paymentInstrument",
      "outputs": [
        {
          "internalType": "contract IERC20",
          "name": "",
          "type": "address"
        }
      ],
      "stateMutability": "view",
      "type": "function"
    },
    {
      "inputs": [],
      "name": "proxiableUUID",
      "outputs": [
        {
          "internalType": "bytes32",
          "name": "",
          "type": "bytes32"
        }
      ],
      "stateMutability": "view",
      "type": "function"
    },
    {
      "inputs": [
        {
          "internalType": "bytes32",
          "name": "role",
          "type": "bytes32"
        },
        {
          "internalType": "address",
          "name": "account",
          "type": "address"
        }
      ],
      "name": "renounceRole",
      "outputs": [],
      "stateMutability": "nonpayable",
      "type": "function"
    },
    {
      "inputs": [
        {
          "internalType": "bytes32",
          "name": "role",
          "type": "bytes32"
        },
        {
          "internalType": "address",
          "name": "account",
          "type": "address"
        }
      ],
      "name": "revokeRole",
      "outputs": [],
      "stateMutability": "nonpayable",
      "type": "function"
    },
    {
      "inputs": [],
      "name": "rewardPool",
      "outputs": [
        {
          "internalType": "uint256",
          "name": "",
          "type": "uint256"
        }
      ],
      "stateMutability": "view",
      "type": "function"
    },
    {
      "inputs": [
        {
          "internalType": "bytes4",
          "name": "interfaceId",
          "type": "bytes4"
        }
      ],
      "name": "supportsInterface",
      "outputs": [
        {
          "internalType": "bool",
          "name": "",
          "type": "bool"
        }
      ],
      "stateMutability": "view",
      "type": "function"
    },
    {
      "inputs": [],
      "name": "unpause",
      "outputs": [],
      "stateMutability": "nonpayable",
      "type": "function"
    },
    {
      "inputs": [
        {
          "internalType": "address",
          "name": "newImplementation",
          "type": "address"
        }
      ],
      "name": "upgradeTo",
      "outputs": [],
      "stateMutability": "nonpayable",
      "type": "function"
    },
    {
      "inputs": [
        {
          "internalType": "address",
          "name": "newImplementation",
          "type": "address"
        },
        {
          "internalType": "bytes",
          "name": "data",
          "type": "bytes"
        }
      ],
      "name": "upgradeToAndCall",
      "outputs": [],
      "stateMutability": "payable",
      "type": "function"
    },
    {
      "inputs": [
        {
          "internalType": "address",
          "name": "receiver",
          "type": "address"
        },
        {
          "internalType": "uint256",
          "name": "amount",
          "type": "uint256"
        }
      ],
      "name": "withdrawInvestment",
      "outputs": [
        {
          "internalType": "bool",
          "name": "",
          "type": "bool"
        }
      ],
      "stateMutability": "nonpayable",
      "type": "function"
    },
    {
      "inputs": [
        {
          "internalType": "address",
          "name": "receiver",
          "type": "address"
        },
        {
          "internalType": "uint256",
          "name": "_amount",
          "type": "uint256"
        }
      ],
      "name": "withdrawManagerFee",
      "outputs": [
        {
          "internalType": "bool",
          "name": "",
          "type": "bool"
        }
      ],
      "stateMutability": "nonpayable",
      "type": "function"
    },
    {
      "inputs": [
        {
          "internalType": "address",
          "name": "receiver",
          "type": "address"
        },
        {
          "internalType": "uint256",
          "name": "_amount",
          "type": "uint256"
        }
      ],
      "name": "withdrawReward",
      "outputs": [
        {
          "internalType": "bool",
          "name": "",
          "type": "bool"
        }
      ],
      "stateMutability": "nonpayable",
      "type": "function"
    }
  ],
  "bytecode": "0x60a06040523073ffffffffffffffffffffffffffffffffffffffff1660809073ffffffffffffffffffffffffffffffffffffffff168152503480156200004457600080fd5b50600060019054906101000a900460ff166200006f5760008054906101000a900460ff161562000080565b6200007f6200013c60201b60201c565b5b620000c2576040517f08c379a0000000000000000000000000000000000000000000000000000000008152600401620000b99062000204565b60405180910390fd5b60008060019054906101000a900460ff16159050801562000113576001600060016101000a81548160ff02191690831515021790555060016000806101000a81548160ff0219169083151502179055505b8015620001355760008060016101000a81548160ff0219169083151502179055505b5062000226565b600062000154306200015a60201b620017ba1760201c565b15905090565b6000808273ffffffffffffffffffffffffffffffffffffffff163b119050919050565b600082825260208201905092915050565b7f496e697469616c697a61626c653a20636f6e747261637420697320616c72656160008201527f647920696e697469616c697a6564000000000000000000000000000000000000602082015250565b6000620001ec602e836200017d565b9150620001f9826200018e565b604082019050919050565b600060208201905081810360008301526200021f81620001dd565b9050919050565b608051613a2a6200025e6000396000818161098f01528181610a1e01528181610d2901528181610db80152610e680152613a2a6000f3fe60806040526004361061019c5760003560e01c806366666aa9116100ec578063af27c4391161008a578063d547741f11610064578063d547741f146105cf578063e63ab1e9146105f8578063ec87621c14610623578063f72c0d8b1461064e5761019c565b8063af27c4391461053e578063b12407711461057b578063cd6dc687146105a65761019c565b806391d14854116100c657806391d1485414610480578063a217fddf146104bd578063a6f7f5d6146104e8578063ae2e933b146105135761019c565b806366666aa9146104015780637db4e28f1461042c5780638456cb59146104695761019c565b80633f4ba83a116101595780634f1ef286116101335780634f1ef2861461035257806352d1902d1461036e57806358d3232f146103995780635c975abb146103d65761019c565b80633f4ba83a146102d3578063498e84f4146102ea5780634be08a05146103155761019c565b806301ffc9a7146101a1578063105c551d146101de578063248a9ca31461021b5780632f2ff15d1461025857806336568abe146102815780633659cfe6146102aa575b600080fd5b3480156101ad57600080fd5b506101c860048036038101906101c39190612513565b610679565b6040516101d5919061255b565b60405180910390f35b3480156101ea57600080fd5b506102056004803603810190610200919061260a565b6106f3565b604051610212919061255b565b60405180910390f35b34801561022757600080fd5b50610242600480360381019061023d9190612680565b6108c1565b60405161024f91906126bc565b60405180910390f35b34801561026457600080fd5b5061027f600480360381019061027a91906126d7565b6108e1565b005b34801561028d57600080fd5b506102a860048036038101906102a391906126d7565b61090a565b005b3480156102b657600080fd5b506102d160048036038101906102cc9190612717565b61098d565b005b3480156102df57600080fd5b506102e8610b16565b005b3480156102f657600080fd5b506102ff610b53565b60405161030c9190612753565b60405180910390f35b34801561032157600080fd5b5061033c6004803603810190610337919061260a565b610b5a565b604051610349919061255b565b60405180910390f35b61036c600480360381019061036791906128b4565b610d27565b005b34801561037a57600080fd5b50610383610e64565b60405161039091906126bc565b60405180910390f35b3480156103a557600080fd5b506103c060048036038101906103bb919061260a565b610f1d565b6040516103cd919061255b565b60405180910390f35b3480156103e257600080fd5b506103eb6110eb565b6040516103f8919061255b565b60405180910390f35b34801561040d57600080fd5b50610416611102565b6040516104239190612753565b60405180910390f35b34801561043857600080fd5b50610453600480360381019061044e919061260a565b611109565b604051610460919061255b565b60405180910390f35b34801561047557600080fd5b5061047e6112e4565b005b34801561048c57600080fd5b506104a760048036038101906104a291906126d7565b611321565b6040516104b4919061255b565b60405180910390f35b3480156104c957600080fd5b506104d261138c565b6040516104df91906126bc565b60405180910390f35b3480156104f457600080fd5b506104fd611393565b60405161050a9190612753565b60405180910390f35b34801561051f57600080fd5b5061052861139a565b6040516105359190612753565b60405180910390f35b34801561054a57600080fd5b506105656004803603810190610560919061260a565b6113a1565b604051610572919061255b565b60405180910390f35b34801561058757600080fd5b5061059061152b565b60405161059d919061296f565b60405180910390f35b3480156105b257600080fd5b506105cd60048036038101906105c8919061260a565b611552565b005b3480156105db57600080fd5b506105f660048036038101906105f191906126d7565b611725565b005b34801561060457600080fd5b5061060d61174e565b60405161061a91906126bc565b60405180910390f35b34801561062f57600080fd5b50610638611772565b60405161064591906126bc565b60405180910390f35b34801561065a57600080fd5b50610663611796565b60405161067091906126bc565b60405180910390f35b60007f7965db0b000000000000000000000000000000000000000000000000000000007bffffffffffffffffffffffffffffffffffffffffffffffffffffffff1916827bffffffffffffffffffffffffffffffffffffffffffffffffffffffff191614806106ec57506106eb826117dd565b5b9050919050565b60007f241ecf16d79d0f8dbfb92cbc07fe17840425976cf0667f022fe9877caa831b0861072781610722611847565b61184f565b8261012f54101561076d576040517f08c379a000000000000000000000000000000000000000000000000000000000815260040161076490612a0d565b60405180910390fd5b600061012d60009054906101000a900473ffffffffffffffffffffffffffffffffffffffff1673ffffffffffffffffffffffffffffffffffffffff1663a9059cbb86866040518363ffffffff1660e01b81526004016107cd929190612a3c565b602060405180830381600087803b1580156107e757600080fd5b505af11580156107fb573d6000803e3d6000fd5b505050506040513d601f19601f8201168201806040525081019061081f9190612a91565b905080610861576040517f08c379a000000000000000000000000000000000000000000000000000000000815260040161085890612b30565b60405180910390fd5b8361012f60008282546108749190612b7f565b925050819055507f501556786c1d2fd567ef1688c69826c95d16dfb216c158eb0e72f297331304dc8533866040516108ae93929190612bb3565b60405180910390a1809250505092915050565b600060976000838152602001908152602001600020600101549050919050565b6108ea826108c1565b6108fb816108f6611847565b61184f565b61090583836118ec565b505050565b610912611847565b73ffffffffffffffffffffffffffffffffffffffff168173ffffffffffffffffffffffffffffffffffffffff161461097f576040517f08c379a000000000000000000000000000000000000000000000000000000000815260040161097690612c5c565b60405180910390fd5b61098982826119cd565b5050565b7f000000000000000000000000000000000000000000000000000000000000000073ffffffffffffffffffffffffffffffffffffffff163073ffffffffffffffffffffffffffffffffffffffff161415610a1c576040517f08c379a0000000000000000000000000000000000000000000000000000000008152600401610a1390612cee565b60405180910390fd5b7f000000000000000000000000000000000000000000000000000000000000000073ffffffffffffffffffffffffffffffffffffffff16610a5b611aaf565b73ffffffffffffffffffffffffffffffffffffffff1614610ab1576040517f08c379a0000000000000000000000000000000000000000000000000000000008152600401610aa890612d80565b60405180910390fd5b610aba81611b06565b610b1381600067ffffffffffffffff811115610ad957610ad8612789565b5b6040519080825280601f01601f191660200182016040528015610b0b5781602001600182028036833780820191505090505b506000611b3c565b50565b7f65d7a28e3265b37a6474929f336521b332c1681b933f6cb9f3376673440d862a610b4881610b43611847565b61184f565b610b50611cb9565b50565b61012f5481565b60007f241ecf16d79d0f8dbfb92cbc07fe17840425976cf0667f022fe9877caa831b08610b8e81610b89611847565b61184f565b82610131541015610bd4576040517f08c379a0000000000000000000000000000000000000000000000000000000008152600401610bcb90612e12565b60405180910390fd5b600061012d60009054906101000a900473ffffffffffffffffffffffffffffffffffffffff1673ffffffffffffffffffffffffffffffffffffffff1663a9059cbb86866040518363ffffffff1660e01b8152600401610c34929190612a3c565b602060405180830381600087803b158015610c4e57600080fd5b505af1158015610c62573d6000803e3d6000fd5b505050506040513d601f19601f82011682018060405250810190610c869190612a91565b905080610cc8576040517f08c379a0000000000000000000000000000000000000000000000000000000008152600401610cbf90612ea4565b60405180910390fd5b836101316000828254610cdb9190612b7f565b925050819055507eed5939179dc194223f0edd1517ecee2210b22da7f82c8e4b1795e93b9f06aa853386604051610d1493929190612bb3565b60405180910390a1809250505092915050565b7f000000000000000000000000000000000000000000000000000000000000000073ffffffffffffffffffffffffffffffffffffffff163073ffffffffffffffffffffffffffffffffffffffff161415610db6576040517f08c379a0000000000000000000000000000000000000000000000000000000008152600401610dad90612cee565b60405180910390fd5b7f000000000000000000000000000000000000000000000000000000000000000073ffffffffffffffffffffffffffffffffffffffff16610df5611aaf565b73ffffffffffffffffffffffffffffffffffffffff1614610e4b576040517f08c379a0000000000000000000000000000000000000000000000000000000008152600401610e4290612d80565b60405180910390fd5b610e5482611b06565b610e6082826001611b3c565b5050565b60007f000000000000000000000000000000000000000000000000000000000000000073ffffffffffffffffffffffffffffffffffffffff163073ffffffffffffffffffffffffffffffffffffffff1614610ef4576040517f08c379a0000000000000000000000000000000000000000000000000000000008152600401610eeb90612f36565b60405180910390fd5b7f360894a13ba1a3210667c828492db98dca3e2076cc3735a920a3ca505d382bbc60001b905090565b60007f241ecf16d79d0f8dbfb92cbc07fe17840425976cf0667f022fe9877caa831b08610f5181610f4c611847565b61184f565b82610130541015610f97576040517f08c379a0000000000000000000000000000000000000000000000000000000008152600401610f8e90612fc8565b60405180910390fd5b600061012d60009054906101000a900473ffffffffffffffffffffffffffffffffffffffff1673ffffffffffffffffffffffffffffffffffffffff1663a9059cbb86866040518363ffffffff1660e01b8152600401610ff7929190612a3c565b602060405180830381600087803b15801561101157600080fd5b505af1158015611025573d6000803e3d6000fd5b505050506040513d601f19601f820116820180604052508101906110499190612a91565b90508061108b576040517f08c379a000000000000000000000000000000000000000000000000000000000815260040161108290612ea4565b60405180910390fd5b83610130600082825461109e9190612b7f565b925050819055507fe06fab35f3c220725c11d544884aff93ebf67222c8310c487c71f27c844593e88533866040516110d893929190612bb3565b60405180910390a1809250505092915050565b6000603360009054906101000a900460ff16905090565b6101305481565b60007f241ecf16d79d0f8dbfb92cbc07fe17840425976cf0667f022fe9877caa831b0861113d81611138611847565b61184f565b60008311611180576040517f08c379a000000000000000000000000000000000000000000000000000000000815260040161117790613034565b60405180910390fd5b600061118b84611d5b565b9050600061012d60009054906101000a900473ffffffffffffffffffffffffffffffffffffffff1673ffffffffffffffffffffffffffffffffffffffff166323b872dd8730886040518463ffffffff1660e01b81526004016111ef93929190612bb3565b602060405180830381600087803b15801561120957600080fd5b505af115801561121d573d6000803e3d6000fd5b505050506040513d601f19601f820116820180604052508101906112419190612a91565b905080611283576040517f08c379a000000000000000000000000000000000000000000000000000000000815260040161127a906130a0565b60405180910390fd5b81610130600082825461129691906130c0565b925050819055507fecc7fa2c9c08fa68f2c2942d64a9c92b602004694d2a128c2a034cff48990f518633876040516112d093929190612bb3565b60405180910390a180935050505092915050565b7f65d7a28e3265b37a6474929f336521b332c1681b933f6cb9f3376673440d862a61131681611311611847565b61184f565b61131e611dbd565b50565b60006097600084815260200190815260200160002060000160008373ffffffffffffffffffffffffffffffffffffffff1673ffffffffffffffffffffffffffffffffffffffff16815260200190815260200160002060009054906101000a900460ff16905092915050565b6000801b81565b61012e5481565b6101315481565b60007f241ecf16d79d0f8dbfb92cbc07fe17840425976cf0667f022fe9877caa831b086113d5816113d0611847565b61184f565b600061012d60009054906101000a900473ffffffffffffffffffffffffffffffffffffffff1673ffffffffffffffffffffffffffffffffffffffff166323b872dd8630876040518463ffffffff1660e01b815260040161143793929190612bb3565b602060405180830381600087803b15801561145157600080fd5b505af1158015611465573d6000803e3d6000fd5b505050506040513d601f19601f820116820180604052508101906114899190612a91565b9050806114cb576040517f08c379a00000000000000000000000000000000000000000000000000000000081526004016114c290613188565b60405180910390fd5b8361012f60008282546114de91906130c0565b925050819055507f2dae5a4bd5a430b22f21937161e1346b1066af6e4f7a37dba27b316e4b49f5e785338660405161151893929190612bb3565b60405180910390a1809250505092915050565b61012d60009054906101000a900473ffffffffffffffffffffffffffffffffffffffff1681565b600060019054906101000a900460ff1661157a5760008054906101000a900460ff1615611583565b611582611e60565b5b6115c2576040517f08c379a00000000000000000000000000000000000000000000000000000000081526004016115b99061321a565b60405180910390fd5b60008060019054906101000a900460ff161590508015611612576001600060016101000a81548160ff02191690831515021790555060016000806101000a81548160ff0219169083151502179055505b61161a611e71565b611622611eca565b61162a611f1b565b6116376000801b336118ec565b6116617f65d7a28e3265b37a6474929f336521b332c1681b933f6cb9f3376673440d862a336118ec565b61168b7f189ab7a9244df0848122154315af71fe140f3db0fe014031783b0946b8c9d2e3336118ec565b6116b57f241ecf16d79d0f8dbfb92cbc07fe17840425976cf0667f022fe9877caa831b08336118ec565b8261012d60006101000a81548173ffffffffffffffffffffffffffffffffffffffff021916908373ffffffffffffffffffffffffffffffffffffffff1602179055508161012e8190555080156117205760008060016101000a81548160ff0219169083151502179055505b505050565b61172e826108c1565b61173f8161173a611847565b61184f565b61174983836119cd565b505050565b7f65d7a28e3265b37a6474929f336521b332c1681b933f6cb9f3376673440d862a81565b7f241ecf16d79d0f8dbfb92cbc07fe17840425976cf0667f022fe9877caa831b0881565b7f189ab7a9244df0848122154315af71fe140f3db0fe014031783b0946b8c9d2e381565b6000808273ffffffffffffffffffffffffffffffffffffffff163b119050919050565b60007f01ffc9a7000000000000000000000000000000000000000000000000000000007bffffffffffffffffffffffffffffffffffffffffffffffffffffffff1916827bffffffffffffffffffffffffffffffffffffffffffffffffffffffff1916149050919050565b600033905090565b6118598282611321565b6118e85761187e8173ffffffffffffffffffffffffffffffffffffffff166014611f6c565b61188c8360001c6020611f6c565b60405160200161189d92919061334c565b6040516020818303038152906040526040517f08c379a00000000000000000000000000000000000000000000000000000000081526004016118df91906133bf565b60405180910390fd5b5050565b6118f68282611321565b6119c95760016097600084815260200190815260200160002060000160008373ffffffffffffffffffffffffffffffffffffffff1673ffffffffffffffffffffffffffffffffffffffff16815260200190815260200160002060006101000a81548160ff02191690831515021790555061196e611847565b73ffffffffffffffffffffffffffffffffffffffff168173ffffffffffffffffffffffffffffffffffffffff16837f2f8788117e7eff1d82e926ec794901d17c78024a50270940304540a733656f0d60405160405180910390a45b5050565b6119d78282611321565b15611aab5760006097600084815260200190815260200160002060000160008373ffffffffffffffffffffffffffffffffffffffff1673ffffffffffffffffffffffffffffffffffffffff16815260200190815260200160002060006101000a81548160ff021916908315150217905550611a50611847565b73ffffffffffffffffffffffffffffffffffffffff168173ffffffffffffffffffffffffffffffffffffffff16837ff6391f5c32d9c69d2a47ea670b442974b53935d1edc7fd64eb21e047a839171b60405160405180910390a45b5050565b6000611add7f360894a13ba1a3210667c828492db98dca3e2076cc3735a920a3ca505d382bbc60001b6121a8565b60000160009054906101000a900473ffffffffffffffffffffffffffffffffffffffff16905090565b7f189ab7a9244df0848122154315af71fe140f3db0fe014031783b0946b8c9d2e3611b3881611b33611847565b61184f565b5050565b611b687f4910fdfa16fed3260ed0e7147f7cc6da11a60208b5b9406d12a635614ffd914360001b6121b2565b60000160009054906101000a900460ff1615611b8c57611b87836121bc565b611cb4565b8273ffffffffffffffffffffffffffffffffffffffff166352d1902d6040518163ffffffff1660e01b815260040160206040518083038186803b158015611bd257600080fd5b505afa925050508015611c0357506040513d601f19601f82011682018060405250810190611c0091906133f6565b60015b611c42576040517f08c379a0000000000000000000000000000000000000000000000000000000008152600401611c3990613495565b60405180910390fd5b7f360894a13ba1a3210667c828492db98dca3e2076cc3735a920a3ca505d382bbc60001b8114611ca7576040517f08c379a0000000000000000000000000000000000000000000000000000000008152600401611c9e90613527565b60405180910390fd5b50611cb3838383612275565b5b505050565b611cc16110eb565b611d00576040517f08c379a0000000000000000000000000000000000000000000000000000000008152600401611cf790613593565b60405180910390fd5b6000603360006101000a81548160ff0219169083151502179055507f5db9ee0a495bf2e6ff9c91a7834c1ba4fdd244a5e8aa4e537bd38aeae4b073aa611d44611847565b604051611d5191906135b3565b60405180910390a1565b6000806103e861012e546103e8611d729190612b7f565b84611d7d91906135ce565b611d879190613657565b905060008184611d979190612b7f565b9050806101316000828254611dac91906130c0565b925050819055508192505050919050565b611dc56110eb565b15611e05576040517f08c379a0000000000000000000000000000000000000000000000000000000008152600401611dfc906136d4565b60405180910390fd5b6001603360006101000a81548160ff0219169083151502179055507f62e78cea01bee320cd4e420270b5ea74000d11b0c9f74754ebdbfc544b05a258611e49611847565b604051611e5691906135b3565b60405180910390a1565b6000611e6b306117ba565b15905090565b600060019054906101000a900460ff16611ec0576040517f08c379a0000000000000000000000000000000000000000000000000000000008152600401611eb790613766565b60405180910390fd5b611ec86122a1565b565b600060019054906101000a900460ff16611f19576040517f08c379a0000000000000000000000000000000000000000000000000000000008152600401611f1090613766565b60405180910390fd5b565b600060019054906101000a900460ff16611f6a576040517f08c379a0000000000000000000000000000000000000000000000000000000008152600401611f6190613766565b60405180910390fd5b565b606060006002836002611f7f91906135ce565b611f8991906130c0565b67ffffffffffffffff811115611fa257611fa1612789565b5b6040519080825280601f01601f191660200182016040528015611fd45781602001600182028036833780820191505090505b5090507f30000000000000000000000000000000000000000000000000000000000000008160008151811061200c5761200b613786565b5b60200101907effffffffffffffffffffffffffffffffffffffffffffffffffffffffffffff1916908160001a9053507f7800000000000000000000000000000000000000000000000000000000000000816001815181106120705761206f613786565b5b60200101907effffffffffffffffffffffffffffffffffffffffffffffffffffffffffffff1916908160001a905350600060018460026120b091906135ce565b6120ba91906130c0565b90505b600181111561215a577f3031323334353637383961626364656600000000000000000000000000000000600f8616601081106120fc576120fb613786565b5b1a60f81b82828151811061211357612112613786565b5b60200101907effffffffffffffffffffffffffffffffffffffffffffffffffffffffffffff1916908160001a905350600485901c945080612153906137b5565b90506120bd565b506000841461219e576040517f08c379a00000000000000000000000000000000000000000000000000000000081526004016121959061382b565b60405180910390fd5b8091505092915050565b6000819050919050565b6000819050919050565b6121c5816117ba565b612204576040517f08c379a00000000000000000000000000000000000000000000000000000000081526004016121fb906138bd565b60405180910390fd5b806122317f360894a13ba1a3210667c828492db98dca3e2076cc3735a920a3ca505d382bbc60001b6121a8565b60000160006101000a81548173ffffffffffffffffffffffffffffffffffffffff021916908373ffffffffffffffffffffffffffffffffffffffff16021790555050565b61227e8361230d565b60008251118061228b5750805b1561229c5761229a838361235c565b505b505050565b600060019054906101000a900460ff166122f0576040517f08c379a00000000000000000000000000000000000000000000000000000000081526004016122e790613766565b60405180910390fd5b6000603360006101000a81548160ff021916908315150217905550565b612316816121bc565b8073ffffffffffffffffffffffffffffffffffffffff167fbc7cd75a20ee27fd9adebab32041f755214dbc6bffa90cc0225b39da2e5c2d3b60405160405180910390a250565b6060612367836117ba565b6123a6576040517f08c379a000000000000000000000000000000000000000000000000000000000815260040161239d9061394f565b60405180910390fd5b6000808473ffffffffffffffffffffffffffffffffffffffff16846040516123ce91906139b6565b600060405180830381855af49150503d8060008114612409576040519150601f19603f3d011682016040523d82523d6000602084013e61240e565b606091505b509150915061243682826040518060600160405280602781526020016139ce60279139612440565b9250505092915050565b60608315612450578290506124a0565b6000835111156124635782518084602001fd5b816040517f08c379a000000000000000000000000000000000000000000000000000000000815260040161249791906133bf565b60405180910390fd5b9392505050565b6000604051905090565b600080fd5b600080fd5b60007fffffffff0000000000000000000000000000000000000000000000000000000082169050919050565b6124f0816124bb565b81146124fb57600080fd5b50565b60008135905061250d816124e7565b92915050565b600060208284031215612529576125286124b1565b5b6000612537848285016124fe565b91505092915050565b60008115159050919050565b61255581612540565b82525050565b6000602082019050612570600083018461254c565b92915050565b600073ffffffffffffffffffffffffffffffffffffffff82169050919050565b60006125a182612576565b9050919050565b6125b181612596565b81146125bc57600080fd5b50565b6000813590506125ce816125a8565b92915050565b6000819050919050565b6125e7816125d4565b81146125f257600080fd5b50565b600081359050612604816125de565b92915050565b60008060408385031215612621576126206124b1565b5b600061262f858286016125bf565b9250506020612640858286016125f5565b9150509250929050565b6000819050919050565b61265d8161264a565b811461266857600080fd5b50565b60008135905061267a81612654565b92915050565b600060208284031215612696576126956124b1565b5b60006126a48482850161266b565b91505092915050565b6126b68161264a565b82525050565b60006020820190506126d160008301846126ad565b92915050565b600080604083850312156126ee576126ed6124b1565b5b60006126fc8582860161266b565b925050602061270d858286016125bf565b9150509250929050565b60006020828403121561272d5761272c6124b1565b5b600061273b848285016125bf565b91505092915050565b61274d816125d4565b82525050565b60006020820190506127686000830184612744565b92915050565b600080fd5b600080fd5b6000601f19601f8301169050919050565b7f4e487b7100000000000000000000000000000000000000000000000000000000600052604160045260246000fd5b6127c182612778565b810181811067ffffffffffffffff821117156127e0576127df612789565b5b80604052505050565b60006127f36124a7565b90506127ff82826127b8565b919050565b600067ffffffffffffffff82111561281f5761281e612789565b5b61282882612778565b9050602081019050919050565b82818337600083830152505050565b600061285761285284612804565b6127e9565b90508281526020810184848401111561287357612872612773565b5b61287e848285612835565b509392505050565b600082601f83011261289b5761289a61276e565b5b81356128ab848260208601612844565b91505092915050565b600080604083850312156128cb576128ca6124b1565b5b60006128d9858286016125bf565b925050602083013567ffffffffffffffff8111156128fa576128f96124b6565b5b61290685828601612886565b9150509250929050565b6000819050919050565b600061293561293061292b84612576565b612910565b612576565b9050919050565b60006129478261291a565b9050919050565b60006129598261293c565b9050919050565b6129698161294e565b82525050565b60006020820190506129846000830184612960565b92915050565b600082825260208201905092915050565b7f4e6f7420656e6f7567682062616c616e636520696e20696e766573746d656e7460008201527f20706f6f6c20666f72207769746864726177616c000000000000000000000000602082015250565b60006129f760348361298a565b9150612a028261299b565b604082019050919050565b60006020820190508181036000830152612a26816129ea565b9050919050565b612a3681612596565b82525050565b6000604082019050612a516000830185612a2d565b612a5e6020830184612744565b9392505050565b612a6e81612540565b8114612a7957600080fd5b50565b600081519050612a8b81612a65565b92915050565b600060208284031215612aa757612aa66124b1565b5b6000612ab584828501612a7c565b91505092915050565b7f556e61626c6520746f20776974686472617720696e766573746d656e7420667560008201527f6e64732066726f6d20636f6e7472616374000000000000000000000000000000602082015250565b6000612b1a60318361298a565b9150612b2582612abe565b604082019050919050565b60006020820190508181036000830152612b4981612b0d565b9050919050565b7f4e487b7100000000000000000000000000000000000000000000000000000000600052601160045260246000fd5b6000612b8a826125d4565b9150612b95836125d4565b925082821015612ba857612ba7612b50565b5b828203905092915050565b6000606082019050612bc86000830186612a2d565b612bd56020830185612a2d565b612be26040830184612744565b949350505050565b7f416363657373436f6e74726f6c3a2063616e206f6e6c792072656e6f756e636560008201527f20726f6c657320666f722073656c660000000000000000000000000000000000602082015250565b6000612c46602f8361298a565b9150612c5182612bea565b604082019050919050565b60006020820190508181036000830152612c7581612c39565b9050919050565b7f46756e6374696f6e206d7573742062652063616c6c6564207468726f7567682060008201527f64656c656761746563616c6c0000000000000000000000000000000000000000602082015250565b6000612cd8602c8361298a565b9150612ce382612c7c565b604082019050919050565b60006020820190508181036000830152612d0781612ccb565b9050919050565b7f46756e6374696f6e206d7573742062652063616c6c6564207468726f7567682060008201527f6163746976652070726f78790000000000000000000000000000000000000000602082015250565b6000612d6a602c8361298a565b9150612d7582612d0e565b604082019050919050565b60006020820190508181036000830152612d9981612d5d565b9050919050565b7f4e6f7420656e6f7567682062616c616e636520696e2066656520706f6f6c206660008201527f6f72207769746864726177616c00000000000000000000000000000000000000602082015250565b6000612dfc602d8361298a565b9150612e0782612da0565b604082019050919050565b60006020820190508181036000830152612e2b81612def565b9050919050565b7f556e61626c6520746f207769746864726177207265776172642066756e64732060008201527f66726f6d20636f6e747261637400000000000000000000000000000000000000602082015250565b6000612e8e602d8361298a565b9150612e9982612e32565b604082019050919050565b60006020820190508181036000830152612ebd81612e81565b9050919050565b7f555550535570677261646561626c653a206d757374206e6f742062652063616c60008201527f6c6564207468726f7567682064656c656761746563616c6c0000000000000000602082015250565b6000612f2060388361298a565b9150612f2b82612ec4565b604082019050919050565b60006020820190508181036000830152612f4f81612f13565b9050919050565b7f4e6f7420656e6f7567682062616c616e636520696e2072657761726420706f6f60008201527f6c20666f72207769746864726177616c00000000000000000000000000000000602082015250565b6000612fb260308361298a565b9150612fbd82612f56565b604082019050919050565b60006020820190508181036000830152612fe181612fa5565b9050919050565b7f416d6f756e74206d757374206265206f76657220300000000000000000000000600082015250565b600061301e60158361298a565b915061302982612fe8565b602082019050919050565b6000602082019050818103600083015261304d81613011565b9050919050565b7f556e61626c6520746f206465706f736974207265776172647300000000000000600082015250565b600061308a60198361298a565b915061309582613054565b602082019050919050565b600060208201905081810360008301526130b98161307d565b9050919050565b60006130cb826125d4565b91506130d6836125d4565b9250827fffffffffffffffffffffffffffffffffffffffffffffffffffffffffffffffff0382111561310b5761310a612b50565b5b828201905092915050565b7f556e61626c6520746f206465706f7369742066756e647320746f20636f6e747260008201527f6163740000000000000000000000000000000000000000000000000000000000602082015250565b600061317260238361298a565b915061317d82613116565b604082019050919050565b600060208201905081810360008301526131a181613165565b9050919050565b7f496e697469616c697a61626c653a20636f6e747261637420697320616c72656160008201527f647920696e697469616c697a6564000000000000000000000000000000000000602082015250565b6000613204602e8361298a565b915061320f826131a8565b604082019050919050565b60006020820190508181036000830152613233816131f7565b9050919050565b600081905092915050565b7f416363657373436f6e74726f6c3a206163636f756e7420000000000000000000600082015250565b600061327b60178361323a565b915061328682613245565b601782019050919050565b600081519050919050565b60005b838110156132ba57808201518184015260208101905061329f565b838111156132c9576000848401525b50505050565b60006132da82613291565b6132e4818561323a565b93506132f481856020860161329c565b80840191505092915050565b7f206973206d697373696e6720726f6c6520000000000000000000000000000000600082015250565b600061333660118361323a565b915061334182613300565b601182019050919050565b60006133578261326e565b915061336382856132cf565b915061336e82613329565b915061337a82846132cf565b91508190509392505050565b600061339182613291565b61339b818561298a565b93506133ab81856020860161329c565b6133b481612778565b840191505092915050565b600060208201905081810360008301526133d98184613386565b905092915050565b6000815190506133f081612654565b92915050565b60006020828403121561340c5761340b6124b1565b5b600061341a848285016133e1565b91505092915050565b7f45524331393637557067726164653a206e657720696d706c656d656e7461746960008201527f6f6e206973206e6f742055555053000000000000000000000000000000000000602082015250565b600061347f602e8361298a565b915061348a82613423565b604082019050919050565b600060208201905081810360008301526134ae81613472565b9050919050565b7f45524331393637557067726164653a20756e737570706f727465642070726f7860008201527f6961626c65555549440000000000000000000000000000000000000000000000602082015250565b600061351160298361298a565b915061351c826134b5565b604082019050919050565b6000602082019050818103600083015261354081613504565b9050919050565b7f5061757361626c653a206e6f7420706175736564000000000000000000000000600082015250565b600061357d60148361298a565b915061358882613547565b602082019050919050565b600060208201905081810360008301526135ac81613570565b9050919050565b60006020820190506135c86000830184612a2d565b92915050565b60006135d9826125d4565b91506135e4836125d4565b9250817fffffffffffffffffffffffffffffffffffffffffffffffffffffffffffffffff048311821515161561361d5761361c612b50565b5b828202905092915050565b7f4e487b7100000000000000000000000000000000000000000000000000000000600052601260045260246000fd5b6000613662826125d4565b915061366d836125d4565b92508261367d5761367c613628565b5b828204905092915050565b7f5061757361626c653a2070617573656400000000000000000000000000000000600082015250565b60006136be60108361298a565b91506136c982613688565b602082019050919050565b600060208201905081810360008301526136ed816136b1565b9050919050565b7f496e697469616c697a61626c653a20636f6e7472616374206973206e6f74206960008201527f6e697469616c697a696e67000000000000000000000000000000000000000000602082015250565b6000613750602b8361298a565b915061375b826136f4565b604082019050919050565b6000602082019050818103600083015261377f81613743565b9050919050565b7f4e487b7100000000000000000000000000000000000000000000000000000000600052603260045260246000fd5b60006137c0826125d4565b915060008214156137d4576137d3612b50565b5b600182039050919050565b7f537472696e67733a20686578206c656e67746820696e73756666696369656e74600082015250565b600061381560208361298a565b9150613820826137df565b602082019050919050565b6000602082019050818103600083015261384481613808565b9050919050565b7f455243313936373a206e657720696d706c656d656e746174696f6e206973206e60008201527f6f74206120636f6e747261637400000000000000000000000000000000000000602082015250565b60006138a7602d8361298a565b91506138b28261384b565b604082019050919050565b600060208201905081810360008301526138d68161389a565b9050919050565b7f416464726573733a2064656c65676174652063616c6c20746f206e6f6e2d636f60008201527f6e74726163740000000000000000000000000000000000000000000000000000602082015250565b600061393960268361298a565b9150613944826138dd565b604082019050919050565b600060208201905081810360008301526139688161392c565b9050919050565b600081519050919050565b600081905092915050565b60006139908261396f565b61399a818561397a565b93506139aa81856020860161329c565b80840191505092915050565b60006139c28284613985565b91508190509291505056fe416464726573733a206c6f772d6c6576656c2064656c65676174652063616c6c206661696c6564a26469706673582212204259703ab2a85b45d5e80f2681a8f95f77dfa00d5d4f9c6b77d64d724377b29d64736f6c63430008090033",
  "linkReferences": {},
  "deployedLinkReferences": {}
}