{
  "_format": "hh-sol-artifact-1",
  "contractName": "Sunblock",
  "sourceName": "contracts/sunblock.sol",
  "abi": [
    {
      "inputs": [
        {
          "internalType": "uint256",
          "name": "identifier",
          "type": "uint256"
        },
        {
          "internalType": "address",
          "name": "paymentInstrument",
          "type": "address"
        },
        {
          "internalType": "address",
          "name": "investmentPool",
          "type": "address"
        },
        {
          "internalType": "address",
          "name": "manager",
          "type": "address"
        },
        {
          "internalType": "uint256",
          "name": "unitcost",
          "type": "uint256"
        },
        {
          "internalType": "uint256",
          "name": "managementFee",
          "type": "uint256"
        }
      ],
      "stateMutability": "nonpayable",
      "type": "constructor"
    },
    {
      "anonymous": false,
      "inputs": [
        {
          "indexed": false,
          "internalType": "uint256",
          "name": "amount",
          "type": "uint256"
        },
        {
          "indexed": false,
          "internalType": "address",
          "name": "payer",
          "type": "address"
        }
      ],
      "name": "DepositMade",
      "type": "event"
    },
    {
      "anonymous": false,
      "inputs": [
        {
          "indexed": false,
          "internalType": "address",
          "name": "",
          "type": "address"
        }
      ],
      "name": "NewShareholder",
      "type": "event"
    },
    {
      "anonymous": false,
      "inputs": [
        {
          "indexed": true,
          "internalType": "address",
          "name": "previousOwner",
          "type": "address"
        },
        {
          "indexed": true,
          "internalType": "address",
          "name": "newOwner",
          "type": "address"
        }
      ],
      "name": "OwnershipTransferred",
      "type": "event"
    },
    {
      "anonymous": false,
      "inputs": [
        {
          "indexed": false,
          "internalType": "address",
          "name": "account",
          "type": "address"
        }
      ],
      "name": "Paused",
      "type": "event"
    },
    {
      "anonymous": false,
      "inputs": [
        {
          "indexed": false,
          "internalType": "address",
          "name": "holder",
          "type": "address"
        },
        {
          "indexed": false,
          "internalType": "uint256",
          "name": "amount",
          "type": "uint256"
        }
      ],
      "name": "RewardIssued",
      "type": "event"
    },
    {
      "anonymous": false,
      "inputs": [
        {
          "indexed": false,
          "internalType": "uint256",
          "name": "holders",
          "type": "uint256"
        },
        {
          "indexed": false,
          "internalType": "uint256",
          "name": "totalAmount",
          "type": "uint256"
        }
      ],
      "name": "RewardsDepleted",
      "type": "event"
    },
    {
      "anonymous": false,
      "inputs": [
        {
          "indexed": false,
          "internalType": "address",
          "name": "holder",
          "type": "address"
        },
        {
          "indexed": false,
          "internalType": "uint256",
          "name": "sharesIssued",
          "type": "uint256"
        }
      ],
      "name": "SharesIssued",
      "type": "event"
    },
    {
      "anonymous": false,
      "inputs": [
        {
          "indexed": false,
          "internalType": "address",
          "name": "token",
          "type": "address"
        },
        {
          "indexed": false,
          "internalType": "uint256",
          "name": "amount",
          "type": "uint256"
        },
        {
          "indexed": false,
          "internalType": "address",
          "name": "recoveryAddress",
          "type": "address"
        }
      ],
      "name": "TokenRecovered",
      "type": "event"
    },
    {
      "anonymous": false,
      "inputs": [
        {
          "indexed": false,
          "internalType": "address",
          "name": "account",
          "type": "address"
        }
      ],
      "name": "Unpaused",
      "type": "event"
    },
    {
      "inputs": [
        {
          "internalType": "uint256",
          "name": "_shareAmount",
          "type": "uint256"
        }
      ],
      "name": "buyShares",
      "outputs": [],
      "stateMutability": "nonpayable",
      "type": "function"
    },
    {
      "inputs": [
        {
          "internalType": "address",
          "name": "newManager",
          "type": "address"
        }
      ],
      "name": "changeManager",
      "outputs": [],
      "stateMutability": "nonpayable",
      "type": "function"
    },
    {
      "inputs": [
        {
          "internalType": "uint256",
          "name": "_amount",
          "type": "uint256"
        }
      ],
      "name": "depositRewards",
      "outputs": [],
      "stateMutability": "nonpayable",
      "type": "function"
    },
    {
      "inputs": [],
      "name": "distributeRewards",
      "outputs": [],
      "stateMutability": "nonpayable",
      "type": "function"
    },
    {
      "inputs": [],
      "name": "investmentsHeld",
      "outputs": [
        {
          "internalType": "uint256",
          "name": "",
          "type": "uint256"
        }
      ],
      "stateMutability": "view",
      "type": "function"
    },
    {
      "inputs": [],
      "name": "owner",
      "outputs": [
        {
          "internalType": "address",
          "name": "",
          "type": "address"
        }
      ],
      "stateMutability": "view",
      "type": "function"
    },
    {
      "inputs": [],
      "name": "paused",
      "outputs": [
        {
          "internalType": "bool",
          "name": "",
          "type": "bool"
        }
      ],
      "stateMutability": "view",
      "type": "function"
    },
    {
      "inputs": [
        {
          "internalType": "address",
          "name": "_tokenAddress",
          "type": "address"
        },
        {
          "internalType": "uint256",
          "name": "amount",
          "type": "uint256"
        }
      ],
      "name": "recoverToken",
      "outputs": [],
      "stateMutability": "nonpayable",
      "type": "function"
    },
    {
      "inputs": [],
      "name": "renounceOwnership",
      "outputs": [],
      "stateMutability": "nonpayable",
      "type": "function"
    },
    {
      "inputs": [],
      "name": "rewardsHeld",
      "outputs": [
        {
          "internalType": "uint256",
          "name": "",
          "type": "uint256"
        }
      ],
      "stateMutability": "view",
      "type": "function"
    },
    {
      "inputs": [],
      "name": "shareHolderCount",
      "outputs": [
        {
          "internalType": "uint256",
          "name": "",
          "type": "uint256"
        }
      ],
      "stateMutability": "view",
      "type": "function"
    },
    {
      "inputs": [
        {
          "internalType": "address",
          "name": "",
          "type": "address"
        }
      ],
      "name": "shareholder",
      "outputs": [
        {
          "internalType": "uint256",
          "name": "shares",
          "type": "uint256"
        }
      ],
      "stateMutability": "view",
      "type": "function"
    },
    {
      "inputs": [],
      "name": "sharesIssued",
      "outputs": [
        {
          "internalType": "uint256",
          "name": "",
          "type": "uint256"
        }
      ],
      "stateMutability": "view",
      "type": "function"
    },
    {
      "inputs": [
        {
          "internalType": "address",
          "name": "newOwner",
          "type": "address"
        }
      ],
      "name": "transferOwnership",
      "outputs": [],
      "stateMutability": "nonpayable",
      "type": "function"
    },
    {
      "inputs": [],
      "name": "vehicle",
      "outputs": [
        {
          "internalType": "uint256",
          "name": "identifier",
          "type": "uint256"
        },
        {
          "internalType": "contract IERC20",
          "name": "paymentInstrument",
          "type": "address"
        },
        {
          "internalType": "uint256",
          "name": "unitcost",
          "type": "uint256"
        },
        {
          "internalType": "address",
          "name": "investmentPool",
          "type": "address"
        },
        {
          "internalType": "address",
          "name": "manager",
          "type": "address"
        },
        {
          "internalType": "uint256",
          "name": "managementFee",
          "type": "uint256"
        }
      ],
      "stateMutability": "view",
      "type": "function"
    }
  ],
  "bytecode": "0x60806040523480156200001157600080fd5b5060405162002c0e38038062002c0e83398181016040528101906200003791906200035d565b60008060006101000a81548160ff0219169083151502179055506200007162000065620001eb60201b60201c565b620001f360201b60201c565b600180819055506040518060c001604052808781526020018673ffffffffffffffffffffffffffffffffffffffff1681526020018381526020018573ffffffffffffffffffffffffffffffffffffffff1681526020018473ffffffffffffffffffffffffffffffffffffffff1681526020018281525060026000820151816000015560208201518160010160006101000a81548173ffffffffffffffffffffffffffffffffffffffff021916908373ffffffffffffffffffffffffffffffffffffffff1602179055506040820151816002015560608201518160030160006101000a81548173ffffffffffffffffffffffffffffffffffffffff021916908373ffffffffffffffffffffffffffffffffffffffff16021790555060808201518160040160006101000a81548173ffffffffffffffffffffffffffffffffffffffff021916908373ffffffffffffffffffffffffffffffffffffffff16021790555060a08201518160050155905050505050505050620003f9565b600033905090565b60008060019054906101000a900473ffffffffffffffffffffffffffffffffffffffff16905081600060016101000a81548173ffffffffffffffffffffffffffffffffffffffff021916908373ffffffffffffffffffffffffffffffffffffffff1602179055508173ffffffffffffffffffffffffffffffffffffffff168173ffffffffffffffffffffffffffffffffffffffff167f8be0079c531659141344cd1fd0a4f28419497f9722a3daafe3b4186f6b6457e060405160405180910390a35050565b600080fd5b6000819050919050565b620002d281620002bd565b8114620002de57600080fd5b50565b600081519050620002f281620002c7565b92915050565b600073ffffffffffffffffffffffffffffffffffffffff82169050919050565b60006200032582620002f8565b9050919050565b620003378162000318565b81146200034357600080fd5b50565b60008151905062000357816200032c565b92915050565b60008060008060008060c087890312156200037d576200037c620002b8565b5b60006200038d89828a01620002e1565b9650506020620003a089828a0162000346565b9550506040620003b389828a0162000346565b9450506060620003c689828a0162000346565b9350506080620003d989828a01620002e1565b92505060a0620003ec89828a01620002e1565b9150509295509295509295565b61280580620004096000396000f3fe608060405234801561001057600080fd5b50600436106100f55760003560e01c80638bdf67f211610097578063b29a814011610066578063b29a81401461022f578063be3925a11461024b578063d1a93d1814610269578063f2fde38b14610285576100f5565b80638bdf67f2146101bb5780638da5cb5b146101d757806397f49fe9146101f5578063a3fbbaae14610213576100f5565b80635c975abb116100d35780635c975abb1461016b57806360510650146101895780636f4a2cd0146101a7578063715018a6146101b1576100f5565b806304cb7f37146100fa578063132a339b146101185780634491a1cf1461013b575b600080fd5b6101026102a1565b60405161010f91906119ab565b60405180910390f35b6101206102a7565b60405161013296959493929190611a66565b60405180910390f35b61015560048036038101906101509190611af8565b610331565b60405161016291906119ab565b60405180910390f35b61017361034f565b6040516101809190611b40565b60405180910390f35b610191610365565b60405161019e91906119ab565b60405180910390f35b6101af61043f565b005b6101b9610787565b005b6101d560048036038101906101d09190611b87565b61080f565b005b6101df610ba7565b6040516101ec9190611bb4565b60405180910390f35b6101fd610bd0565b60405161020a91906119ab565b60405180910390f35b61022d60048036038101906102289190611af8565b610be1565b005b61024960048036038101906102449190611bcf565b610d8d565b005b610253611003565b60405161026091906119ab565b60405180910390f35b610283600480360381019061027e9190611b87565b6110b8565b005b61029f600480360381019061029a9190611af8565b611386565b005b60085481565b60028060000154908060010160009054906101000a900473ffffffffffffffffffffffffffffffffffffffff16908060020154908060030160009054906101000a900473ffffffffffffffffffffffffffffffffffffffff16908060040160009054906101000a900473ffffffffffffffffffffffffffffffffffffffff16908060050154905086565b60096020528060005260406000206000915090508060000154905081565b60008060009054906101000a900460ff16905090565b6000600260010160009054906101000a900473ffffffffffffffffffffffffffffffffffffffff1673ffffffffffffffffffffffffffffffffffffffff166370a08231600260030160009054906101000a900473ffffffffffffffffffffffffffffffffffffffff166040518263ffffffff1660e01b81526004016103ea9190611bb4565b60206040518083038186803b15801561040257600080fd5b505afa158015610416573d6000803e3d6000fd5b505050506040513d601f19601f8201168201806040525081019061043a9190611c24565b905090565b61044761147e565b73ffffffffffffffffffffffffffffffffffffffff16610465610ba7565b73ffffffffffffffffffffffffffffffffffffffff16146104bb576040517f08c379a00000000000000000000000000000000000000000000000000000000081526004016104b290611cae565b60405180910390fd5b60026001541415610501576040517f08c379a00000000000000000000000000000000000000000000000000000000081526004016104f890611d1a565b60405180910390fd5b60026001819055506000600260010160009054906101000a900473ffffffffffffffffffffffffffffffffffffffff1673ffffffffffffffffffffffffffffffffffffffff166370a08231306040518263ffffffff1660e01b81526004016105699190611bb4565b60206040518083038186803b15801561058157600080fd5b505afa158015610595573d6000803e3d6000fd5b505050506040513d601f19601f820116820180604052508101906105b99190611c24565b9050600081116105fe576040517f08c379a00000000000000000000000000000000000000000000000000000000081526004016105f590611d86565b60405180910390fd5b60006008548261060e9190611e04565b9050600061061c600a611486565b905060005b81811015610741576000610636600a8361149b565b90506000600960008373ffffffffffffffffffffffffffffffffffffffff1673ffffffffffffffffffffffffffffffffffffffff168152602001908152602001600020604051806020016040529081600082015481525050905060008160000151866106a29190611e35565b90506106f48382600260010160009054906101000a900473ffffffffffffffffffffffffffffffffffffffff1673ffffffffffffffffffffffffffffffffffffffff166114b59092919063ffffffff16565b7ff9b6ec770c96c3a6f9225bf3a8463a8ad03e884448af07b4ecd4d19d628946ee8382604051610725929190611e8f565b60405180910390a15050508061073a90611eb8565b9050610621565b507fd71782ca65fed80c6df14f731410ac7977de4b8040e3d5136e24f6a1cf69d6328184604051610773929190611f01565b60405180910390a150505060018081905550565b61078f61147e565b73ffffffffffffffffffffffffffffffffffffffff166107ad610ba7565b73ffffffffffffffffffffffffffffffffffffffff1614610803576040517f08c379a00000000000000000000000000000000000000000000000000000000081526004016107fa90611cae565b60405180910390fd5b61080d600061153b565b565b61081761147e565b73ffffffffffffffffffffffffffffffffffffffff16610835610ba7565b73ffffffffffffffffffffffffffffffffffffffff161461088b576040517f08c379a000000000000000000000000000000000000000000000000000000000815260040161088290611cae565b60405180910390fd5b600260015414156108d1576040517f08c379a00000000000000000000000000000000000000000000000000000000081526004016108c890611d1a565b60405180910390fd5b60026001819055506000811161091c576040517f08c379a000000000000000000000000000000000000000000000000000000000815260040161091390611f76565b60405180910390fd5b60006103e86103848361092f9190611e35565b6109399190611e04565b9050600081836109499190611f96565b90506000600260010160009054906101000a900473ffffffffffffffffffffffffffffffffffffffff1673ffffffffffffffffffffffffffffffffffffffff166323b872dd3330866040518463ffffffff1660e01b81526004016109af93929190611fca565b602060405180830381600087803b1580156109c957600080fd5b505af11580156109dd573d6000803e3d6000fd5b505050506040513d601f19601f82011682018060405250810190610a01919061202d565b905080610a43576040517f08c379a0000000000000000000000000000000000000000000000000000000008152600401610a3a906120a6565b60405180910390fd5b6000600260010160009054906101000a900473ffffffffffffffffffffffffffffffffffffffff1673ffffffffffffffffffffffffffffffffffffffff166323b872dd33600260040160009054906101000a900473ffffffffffffffffffffffffffffffffffffffff16866040518463ffffffff1660e01b8152600401610acc93929190611fca565b602060405180830381600087803b158015610ae657600080fd5b505af1158015610afa573d6000803e3d6000fd5b505050506040513d601f19601f82011682018060405250810190610b1e919061202d565b905080610b60576040517f08c379a0000000000000000000000000000000000000000000000000000000008152600401610b5790612138565b60405180910390fd5b7fd6dd599afd391d71910ff05250361e65405a896dc557e4e7bf5190b5abbb38168533604051610b91929190612158565b60405180910390a1505050506001808190555050565b60008060019054906101000a900473ffffffffffffffffffffffffffffffffffffffff16905090565b6000610bdc600a611486565b905090565b610be961147e565b73ffffffffffffffffffffffffffffffffffffffff16610c07610ba7565b73ffffffffffffffffffffffffffffffffffffffff1614610c5d576040517f08c379a0000000000000000000000000000000000000000000000000000000008152600401610c5490611cae565b60405180910390fd5b60026001541415610ca3576040517f08c379a0000000000000000000000000000000000000000000000000000000008152600401610c9a90611d1a565b60405180910390fd5b60026001819055508073ffffffffffffffffffffffffffffffffffffffff16600260040160009054906101000a900473ffffffffffffffffffffffffffffffffffffffff1673ffffffffffffffffffffffffffffffffffffffff161415610d3f576040517f08c379a0000000000000000000000000000000000000000000000000000000008152600401610d36906121cd565b60405180910390fd5b80600260040160006101000a81548173ffffffffffffffffffffffffffffffffffffffff021916908373ffffffffffffffffffffffffffffffffffffffff1602179055506001808190555050565b610d9561147e565b73ffffffffffffffffffffffffffffffffffffffff16610db3610ba7565b73ffffffffffffffffffffffffffffffffffffffff1614610e09576040517f08c379a0000000000000000000000000000000000000000000000000000000008152600401610e0090611cae565b60405180910390fd5b60026001541415610e4f576040517f08c379a0000000000000000000000000000000000000000000000000000000008152600401610e4690611d1a565b60405180910390fd5b6002600181905550600260010160009054906101000a900473ffffffffffffffffffffffffffffffffffffffff1673ffffffffffffffffffffffffffffffffffffffff168273ffffffffffffffffffffffffffffffffffffffff161415610eeb576040517f08c379a0000000000000000000000000000000000000000000000000000000008152600401610ee29061225f565b60405180910390fd5b60008273ffffffffffffffffffffffffffffffffffffffff1663a9059cbb33846040518363ffffffff1660e01b8152600401610f28929190611e8f565b602060405180830381600087803b158015610f4257600080fd5b505af1158015610f56573d6000803e3d6000fd5b505050506040513d601f19601f82011682018060405250810190610f7a919061202d565b905080610fbc576040517f08c379a0000000000000000000000000000000000000000000000000000000008152600401610fb3906122f1565b60405180910390fd5b7f25cf8d26509ef33d03d7d79115a9acdd514856bbe6793a7af3f42f635e1e1124838333604051610fef93929190612311565b60405180910390a150600180819055505050565b6000600260010160009054906101000a900473ffffffffffffffffffffffffffffffffffffffff1673ffffffffffffffffffffffffffffffffffffffff166370a08231306040518263ffffffff1660e01b81526004016110639190611bb4565b60206040518083038186803b15801561107b57600080fd5b505afa15801561108f573d6000803e3d6000fd5b505050506040513d601f19601f820116820180604052508101906110b39190611c24565b905090565b600260015414156110fe576040517f08c379a00000000000000000000000000000000000000000000000000000000081526004016110f590611d1a565b60405180910390fd5b600260018190555060008111611149576040517f08c379a000000000000000000000000000000000000000000000000000000000815260040161114090612394565b60405180910390fd5b6000600260010160009054906101000a900473ffffffffffffffffffffffffffffffffffffffff1673ffffffffffffffffffffffffffffffffffffffff166323b872dd33600260030160009054906101000a900473ffffffffffffffffffffffffffffffffffffffff166111ca86600280015461160090919063ffffffff16565b6040518463ffffffff1660e01b81526004016111e893929190611fca565b602060405180830381600087803b15801561120257600080fd5b505af1158015611216573d6000803e3d6000fd5b505050506040513d601f19601f8201168201806040525081019061123a919061202d565b90508061127c576040517f08c379a000000000000000000000000000000000000000000000000000000000815260040161127390612400565b60405180910390fd5b6000600960003373ffffffffffffffffffffffffffffffffffffffff1673ffffffffffffffffffffffffffffffffffffffff1681526020019081526020016000209050828160000160008282546112d39190612420565b9250508190555060006112e7600a33611616565b90508015611327577f390bb96d704012a89e9e8d9b8037ca62bfb257d4d96cebf97648c2e1fa29c6b63360405161131e9190611bb4565b60405180910390a15b83600860008282546113399190612420565b925050819055507f3abf6d97fde3541bb582f72fa6fb75093b8bb699577fbc722ac25de9f6fbc4ed3385604051611371929190611e8f565b60405180910390a15050506001808190555050565b61138e61147e565b73ffffffffffffffffffffffffffffffffffffffff166113ac610ba7565b73ffffffffffffffffffffffffffffffffffffffff1614611402576040517f08c379a00000000000000000000000000000000000000000000000000000000081526004016113f990611cae565b60405180910390fd5b600073ffffffffffffffffffffffffffffffffffffffff168173ffffffffffffffffffffffffffffffffffffffff161415611472576040517f08c379a0000000000000000000000000000000000000000000000000000000008152600401611469906124e8565b60405180910390fd5b61147b8161153b565b50565b600033905090565b600061149482600001611646565b9050919050565b60006114aa8360000183611657565b60001c905092915050565b6115368363a9059cbb60e01b84846040516024016114d4929190611e8f565b604051602081830303815290604052907bffffffffffffffffffffffffffffffffffffffffffffffffffffffff19166020820180517bffffffffffffffffffffffffffffffffffffffffffffffffffffffff8381831617835250505050611682565b505050565b60008060019054906101000a900473ffffffffffffffffffffffffffffffffffffffff16905081600060016101000a81548173ffffffffffffffffffffffffffffffffffffffff021916908373ffffffffffffffffffffffffffffffffffffffff1602179055508173ffffffffffffffffffffffffffffffffffffffff168173ffffffffffffffffffffffffffffffffffffffff167f8be0079c531659141344cd1fd0a4f28419497f9722a3daafe3b4186f6b6457e060405160405180910390a35050565b6000818361160e9190611e35565b905092915050565b600061163e836000018373ffffffffffffffffffffffffffffffffffffffff1660001b611749565b905092915050565b600081600001805490509050919050565b600082600001828154811061166f5761166e612508565b5b9060005260206000200154905092915050565b60006116e4826040518060400160405280602081526020017f5361666545524332303a206c6f772d6c6576656c2063616c6c206661696c65648152508573ffffffffffffffffffffffffffffffffffffffff166117b99092919063ffffffff16565b90506000815111156117445780806020019051810190611704919061202d565b611743576040517f08c379a000000000000000000000000000000000000000000000000000000000815260040161173a906125a9565b60405180910390fd5b5b505050565b600061175583836117d1565b6117ae5782600001829080600181540180825580915050600190039060005260206000200160009091909190915055826000018054905083600101600084815260200190815260200160002081905550600190506117b3565b600090505b92915050565b60606117c884846000856117f4565b90509392505050565b600080836001016000848152602001908152602001600020541415905092915050565b606082471015611839576040517f08c379a00000000000000000000000000000000000000000000000000000000081526004016118309061263b565b60405180910390fd5b61184285611908565b611881576040517f08c379a0000000000000000000000000000000000000000000000000000000008152600401611878906126a7565b60405180910390fd5b6000808673ffffffffffffffffffffffffffffffffffffffff1685876040516118aa9190612741565b60006040518083038185875af1925050503d80600081146118e7576040519150601f19603f3d011682016040523d82523d6000602084013e6118ec565b606091505b50915091506118fc82828661192b565b92505050949350505050565b6000808273ffffffffffffffffffffffffffffffffffffffff163b119050919050565b6060831561193b5782905061198b565b60008351111561194e5782518084602001fd5b816040517f08c379a000000000000000000000000000000000000000000000000000000000815260040161198291906127ad565b60405180910390fd5b9392505050565b6000819050919050565b6119a581611992565b82525050565b60006020820190506119c0600083018461199c565b92915050565b600073ffffffffffffffffffffffffffffffffffffffff82169050919050565b6000819050919050565b6000611a0b611a06611a01846119c6565b6119e6565b6119c6565b9050919050565b6000611a1d826119f0565b9050919050565b6000611a2f82611a12565b9050919050565b611a3f81611a24565b82525050565b6000611a50826119c6565b9050919050565b611a6081611a45565b82525050565b600060c082019050611a7b600083018961199c565b611a886020830188611a36565b611a95604083018761199c565b611aa26060830186611a57565b611aaf6080830185611a57565b611abc60a083018461199c565b979650505050505050565b600080fd5b611ad581611a45565b8114611ae057600080fd5b50565b600081359050611af281611acc565b92915050565b600060208284031215611b0e57611b0d611ac7565b5b6000611b1c84828501611ae3565b91505092915050565b60008115159050919050565b611b3a81611b25565b82525050565b6000602082019050611b556000830184611b31565b92915050565b611b6481611992565b8114611b6f57600080fd5b50565b600081359050611b8181611b5b565b92915050565b600060208284031215611b9d57611b9c611ac7565b5b6000611bab84828501611b72565b91505092915050565b6000602082019050611bc96000830184611a57565b92915050565b60008060408385031215611be657611be5611ac7565b5b6000611bf485828601611ae3565b9250506020611c0585828601611b72565b9150509250929050565b600081519050611c1e81611b5b565b92915050565b600060208284031215611c3a57611c39611ac7565b5b6000611c4884828501611c0f565b91505092915050565b600082825260208201905092915050565b7f4f776e61626c653a2063616c6c6572206973206e6f7420746865206f776e6572600082015250565b6000611c98602083611c51565b9150611ca382611c62565b602082019050919050565b60006020820190508181036000830152611cc781611c8b565b9050919050565b7f5265656e7472616e637947756172643a207265656e7472616e742063616c6c00600082015250565b6000611d04601f83611c51565b9150611d0f82611cce565b602082019050919050565b60006020820190508181036000830152611d3381611cf7565b9050919050565b7f4e6f207265776172647320746f20646973747269627574650000000000000000600082015250565b6000611d70601883611c51565b9150611d7b82611d3a565b602082019050919050565b60006020820190508181036000830152611d9f81611d63565b9050919050565b7f4e487b7100000000000000000000000000000000000000000000000000000000600052601260045260246000fd5b7f4e487b7100000000000000000000000000000000000000000000000000000000600052601160045260246000fd5b6000611e0f82611992565b9150611e1a83611992565b925082611e2a57611e29611da6565b5b828204905092915050565b6000611e4082611992565b9150611e4b83611992565b9250817fffffffffffffffffffffffffffffffffffffffffffffffffffffffffffffffff0483118215151615611e8457611e83611dd5565b5b828202905092915050565b6000604082019050611ea46000830185611a57565b611eb1602083018461199c565b9392505050565b6000611ec382611992565b91507fffffffffffffffffffffffffffffffffffffffffffffffffffffffffffffffff821415611ef657611ef5611dd5565b5b600182019050919050565b6000604082019050611f16600083018561199c565b611f23602083018461199c565b9392505050565b7f416d6f756e74206d757374206265206f76657220300000000000000000000000600082015250565b6000611f60601583611c51565b9150611f6b82611f2a565b602082019050919050565b60006020820190508181036000830152611f8f81611f53565b9050919050565b6000611fa182611992565b9150611fac83611992565b925082821015611fbf57611fbe611dd5565b5b828203905092915050565b6000606082019050611fdf6000830186611a57565b611fec6020830185611a57565b611ff9604083018461199c565b949350505050565b61200a81611b25565b811461201557600080fd5b50565b60008151905061202781612001565b92915050565b60006020828403121561204357612042611ac7565b5b600061205184828501612018565b91505092915050565b7f556e61626c6520746f206465706f736974207265776172647300000000000000600082015250565b6000612090601983611c51565b915061209b8261205a565b602082019050919050565b600060208201905081810360008301526120bf81612083565b9050919050565b7f556e61626c6520746f207472616e736665722066656520746f206d616e61676560008201527f7200000000000000000000000000000000000000000000000000000000000000602082015250565b6000612122602183611c51565b915061212d826120c6565b604082019050919050565b6000602082019050818103600083015261215181612115565b9050919050565b600060408201905061216d600083018561199c565b61217a6020830184611a57565b9392505050565b7f43616e6e6f742062652073616d65206d616e6167657200000000000000000000600082015250565b60006121b7601683611c51565b91506121c282612181565b602082019050919050565b600060208201905081810360008301526121e6816121aa565b9050919050565b7f596f752063616e2774207265636f766572207061796d656e7420696e7374727560008201527f6d656e7420746f6b656e00000000000000000000000000000000000000000000602082015250565b6000612249602a83611c51565b9150612254826121ed565b604082019050919050565b600060208201905081810360008301526122788161223c565b9050919050565b7f556e61626c6520746f207472616e73666572207265636f766572656420746f6b60008201527f656e000000000000000000000000000000000000000000000000000000000000602082015250565b60006122db602283611c51565b91506122e68261227f565b604082019050919050565b6000602082019050818103600083015261230a816122ce565b9050919050565b60006060820190506123266000830186611a57565b612333602083018561199c565b6123406040830184611a57565b949350505050565b7f536861726520616d6f756e74206d7573742062652031206f72206d6f72650000600082015250565b600061237e601e83611c51565b915061238982612348565b602082019050919050565b600060208201905081810360008301526123ad81612371565b9050919050565b7f4661696c656420746f207472616e736665720000000000000000000000000000600082015250565b60006123ea601283611c51565b91506123f5826123b4565b602082019050919050565b60006020820190508181036000830152612419816123dd565b9050919050565b600061242b82611992565b915061243683611992565b9250827fffffffffffffffffffffffffffffffffffffffffffffffffffffffffffffffff0382111561246b5761246a611dd5565b5b828201905092915050565b7f4f776e61626c653a206e6577206f776e657220697320746865207a65726f206160008201527f6464726573730000000000000000000000000000000000000000000000000000602082015250565b60006124d2602683611c51565b91506124dd82612476565b604082019050919050565b60006020820190508181036000830152612501816124c5565b9050919050565b7f4e487b7100000000000000000000000000000000000000000000000000000000600052603260045260246000fd5b7f5361666545524332303a204552433230206f7065726174696f6e20646964206e60008201527f6f74207375636365656400000000000000000000000000000000000000000000602082015250565b6000612593602a83611c51565b915061259e82612537565b604082019050919050565b600060208201905081810360008301526125c281612586565b9050919050565b7f416464726573733a20696e73756666696369656e742062616c616e636520666f60008201527f722063616c6c0000000000000000000000000000000000000000000000000000602082015250565b6000612625602683611c51565b9150612630826125c9565b604082019050919050565b6000602082019050818103600083015261265481612618565b9050919050565b7f416464726573733a2063616c6c20746f206e6f6e2d636f6e7472616374000000600082015250565b6000612691601d83611c51565b915061269c8261265b565b602082019050919050565b600060208201905081810360008301526126c081612684565b9050919050565b600081519050919050565b600081905092915050565b60005b838110156126fb5780820151818401526020810190506126e0565b8381111561270a576000848401525b50505050565b600061271b826126c7565b61272581856126d2565b93506127358185602086016126dd565b80840191505092915050565b600061274d8284612710565b915081905092915050565b600081519050919050565b6000601f19601f8301169050919050565b600061277f82612758565b6127898185611c51565b93506127998185602086016126dd565b6127a281612763565b840191505092915050565b600060208201905081810360008301526127c78184612774565b90509291505056fea2646970667358221220429bc21ec2e47af78e21206220ddfc53e18a57b4b37ea380d72e323db3a4708264736f6c63430008090033",
  "linkReferences": {},
  "deployedLinkReferences": {}
}